{
  "_format": "hh-sol-artifact-1",
  "contractName": "PrimeAds",
  "sourceName": "contracts/PrimeAds.sol",
  "abi": [
    {
      "inputs": [
        {
          "internalType": "contract Prime",
          "name": "_addr",
          "type": "address"
        }
      ],
      "stateMutability": "nonpayable",
      "type": "constructor"
    },
    {
      "anonymous": false,
      "inputs": [
        {
          "indexed": true,
          "internalType": "address",
          "name": "previousOwner",
          "type": "address"
        },
        {
          "indexed": true,
          "internalType": "address",
          "name": "newOwner",
          "type": "address"
        }
      ],
      "name": "OwnershipTransferred",
      "type": "event"
    },
    {
      "inputs": [
        {
          "internalType": "uint256",
          "name": "",
          "type": "uint256"
        }
      ],
      "name": "allAds",
      "outputs": [
        {
          "internalType": "string",
          "name": "title",
          "type": "string"
        },
        {
          "internalType": "string",
          "name": "link",
          "type": "string"
        },
        {
          "internalType": "address",
          "name": "owner",
          "type": "address"
        },
        {
          "internalType": "uint256",
          "name": "amount",
          "type": "uint256"
        }
      ],
      "stateMutability": "view",
      "type": "function"
    },
    {
      "inputs": [],
      "name": "owner",
      "outputs": [
        {
          "internalType": "address",
          "name": "",
          "type": "address"
        }
      ],
      "stateMutability": "view",
      "type": "function"
    },
    {
      "inputs": [],
      "name": "renounceOwnership",
      "outputs": [],
      "stateMutability": "nonpayable",
      "type": "function"
    },
    {
      "inputs": [
        {
          "internalType": "uint256",
          "name": "amount",
          "type": "uint256"
        },
        {
          "internalType": "string",
          "name": "title",
          "type": "string"
        },
        {
          "internalType": "string",
          "name": "link",
          "type": "string"
        }
      ],
      "name": "startAd",
      "outputs": [],
      "stateMutability": "payable",
      "type": "function"
    },
    {
      "inputs": [],
      "name": "token",
      "outputs": [
        {
          "internalType": "contract Prime",
          "name": "",
          "type": "address"
        }
      ],
      "stateMutability": "view",
      "type": "function"
    },
    {
      "inputs": [
        {
          "internalType": "address",
          "name": "newOwner",
          "type": "address"
        }
      ],
      "name": "transferOwnership",
      "outputs": [],
      "stateMutability": "nonpayable",
      "type": "function"
    }
  ],
  "bytecode": "0x608060405234801561001057600080fd5b50604051610ae1380380610ae183398101604081905261002f916100ad565b6100383361005d565b600180546001600160a01b0319166001600160a01b03929092169190911790556100dd565b600080546001600160a01b038381166001600160a01b0319831681178455604051919092169283917f8be0079c531659141344cd1fd0a4f28419497f9722a3daafe3b4186f6b6457e09190a35050565b6000602082840312156100bf57600080fd5b81516001600160a01b03811681146100d657600080fd5b9392505050565b6109f5806100ec6000396000f3fe6080604052600436106100555760003560e01c80632b2b29461461005a578063715018a61461006f5780638da5cb5b14610084578063c23e3802146100bb578063f2fde38b146100eb578063fc0c546a1461010b575b600080fd5b61006d6100683660046107d7565b61012b565b005b34801561007b57600080fd5b5061006d61040a565b34801561009057600080fd5b506000546001600160a01b03165b6040516001600160a01b0390911681526020015b60405180910390f35b3480156100c757600080fd5b506100db6100d6366004610844565b61041e565b6040516100b294939291906108aa565b3480156100f757600080fd5b5061006d6101063660046108ec565b610578565b34801561011757600080fd5b5060015461009e906001600160a01b031681565b600083116101795760405162461bcd60e51b8152602060048201526016602482015275446f6e277420796f75206861766520746f6b656e733f60501b60448201526064015b60405180910390fd5b6001546040516370a0823160e01b81523360048201526000916001600160a01b0316906370a082319060240160206040518083038186803b1580156101bd57600080fd5b505afa1580156101d1573d6000803e3d6000fd5b505050506040513d601f19601f820116820180604052508101906101f5919061091c565b9050838110156102475760405162461bcd60e51b815260206004820152601760248201527f596f75722062616c616e636520697320746f6f206c6f770000000000000000006044820152606401610170565b6001546000906001600160a01b03166323b872dd333061026f89670de0b6b3a7640000610935565b6040516001600160e01b031960e086901b1681526001600160a01b0393841660048201529290911660248301526044820152606401602060405180830381600087803b1580156102be57600080fd5b505af11580156102d2573d6000803e3d6000fd5b505050506040513d601f19601f820116820180604052508101906102f69190610962565b9050806103455760405162461bcd60e51b815260206004820152601860248201527f4661696c656420746f207265636569766520746f6b656e7300000000000000006044820152606401610170565b60408051608081018252858152602080820186905233928201929092526060810187905260028054600181018255600091909152815180519293849360049093027f405787fa12a823e0f2b7631cc41b3ba8828b3321ca811111fa75cd3aa3bb5ace01926103b6928492019061069b565b5060208281015180516103cf926001850192019061069b565b5060408201516002820180546001600160a01b0319166001600160a01b03909216919091179055606090910151600390910155505050505050565b6104126105f1565b61041c600061064b565b565b6002818154811061042e57600080fd5b906000526020600020906004020160009150905080600001805461045190610984565b80601f016020809104026020016040519081016040528092919081815260200182805461047d90610984565b80156104ca5780601f1061049f576101008083540402835291602001916104ca565b820191906000526020600020905b8154815290600101906020018083116104ad57829003601f168201915b5050505050908060010180546104df90610984565b80601f016020809104026020016040519081016040528092919081815260200182805461050b90610984565b80156105585780601f1061052d57610100808354040283529160200191610558565b820191906000526020600020905b81548152906001019060200180831161053b57829003601f168201915b50505050600283015460039093015491926001600160a01b031691905084565b6105806105f1565b6001600160a01b0381166105e55760405162461bcd60e51b815260206004820152602660248201527f4f776e61626c653a206e6577206f776e657220697320746865207a65726f206160448201526564647265737360d01b6064820152608401610170565b6105ee8161064b565b50565b6000546001600160a01b0316331461041c5760405162461bcd60e51b815260206004820181905260248201527f4f776e61626c653a2063616c6c6572206973206e6f7420746865206f776e65726044820152606401610170565b600080546001600160a01b038381166001600160a01b0319831681178455604051919092169283917f8be0079c531659141344cd1fd0a4f28419497f9722a3daafe3b4186f6b6457e09190a35050565b8280546106a790610984565b90600052602060002090601f0160209004810192826106c9576000855561070f565b82601f106106e257805160ff191683800117855561070f565b8280016001018555821561070f579182015b8281111561070f5782518255916020019190600101906106f4565b5061071b92915061071f565b5090565b5b8082111561071b5760008155600101610720565b634e487b7160e01b600052604160045260246000fd5b600082601f83011261075b57600080fd5b813567ffffffffffffffff8082111561077657610776610734565b604051601f8301601f19908116603f0116810190828211818310171561079e5761079e610734565b816040528381528660208588010111156107b757600080fd5b836020870160208301376000602085830101528094505050505092915050565b6000806000606084860312156107ec57600080fd5b83359250602084013567ffffffffffffffff8082111561080b57600080fd5b6108178783880161074a565b9350604086013591508082111561082d57600080fd5b5061083a8682870161074a565b9150509250925092565b60006020828403121561085657600080fd5b5035919050565b6000815180845260005b8181101561088357602081850181015186830182015201610867565b81811115610895576000602083870101525b50601f01601f19169290920160200192915050565b6080815260006108bd608083018761085d565b82810360208401526108cf818761085d565b6001600160a01b0395909516604084015250506060015292915050565b6000602082840312156108fe57600080fd5b81356001600160a01b038116811461091557600080fd5b9392505050565b60006020828403121561092e57600080fd5b5051919050565b600081600019048311821515161561095d57634e487b7160e01b600052601160045260246000fd5b500290565b60006020828403121561097457600080fd5b8151801515811461091557600080fd5b600181811c9082168061099857607f821691505b602082108114156109b957634e487b7160e01b600052602260045260246000fd5b5091905056fea26469706673582212201de970f8d99da91f61dc0081180e420adde3342e9aa221cf0ff58ce762af66af64736f6c63430008090033",
  "linkReferences": {},
  "deployedLinkReferences": {}
}